{
  "contractName": "Redpacket",
  "abi": [
    {
      "inputs": [],
      "stateMutability": "nonpayable",
      "type": "constructor"
    },
    {
      "anonymous": false,
      "inputs": [
        {
          "indexed": true,
          "internalType": "address",
          "name": "creator",
          "type": "address"
        },
        {
          "indexed": false,
          "internalType": "uint256",
          "name": "totalAmount",
          "type": "uint256"
        },
        {
          "indexed": false,
          "internalType": "uint256",
          "name": "count",
          "type": "uint256"
        },
        {
          "indexed": false,
          "internalType": "bool",
          "name": "isEqual",
          "type": "bool"
        }
      ],
      "name": "RedPacketCreated",
      "type": "event"
    },
    {
      "anonymous": false,
      "inputs": [],
      "name": "RedPacketFinished",
      "type": "event"
    },
    {
      "anonymous": false,
      "inputs": [
        {
          "indexed": true,
          "internalType": "address",
          "name": "grabber",
          "type": "address"
        },
        {
          "indexed": false,
          "internalType": "uint256",
          "name": "amount",
          "type": "uint256"
        }
      ],
      "name": "RedPacketGrabbed",
      "type": "event"
    },
    {
      "inputs": [],
      "name": "count",
      "outputs": [
        {
          "internalType": "uint256",
          "name": "",
          "type": "uint256"
        }
      ],
      "stateMutability": "view",
      "type": "function",
      "constant": true
    },
    {
      "inputs": [
        {
          "internalType": "address",
          "name": "",
          "type": "address"
        }
      ],
      "name": "grabbedAmount",
      "outputs": [
        {
          "internalType": "uint256",
          "name": "",
          "type": "uint256"
        }
      ],
      "stateMutability": "view",
      "type": "function",
      "constant": true
    },
    {
      "inputs": [],
      "name": "isEqual",
      "outputs": [
        {
          "internalType": "bool",
          "name": "",
          "type": "bool"
        }
      ],
      "stateMutability": "view",
      "type": "function",
      "constant": true
    },
    {
      "inputs": [
        {
          "internalType": "address",
          "name": "",
          "type": "address"
        }
      ],
      "name": "isGrabbed",
      "outputs": [
        {
          "internalType": "bool",
          "name": "",
          "type": "bool"
        }
      ],
      "stateMutability": "view",
      "type": "function",
      "constant": true
    },
    {
      "inputs": [],
      "name": "isInitialized",
      "outputs": [
        {
          "internalType": "bool",
          "name": "",
          "type": "bool"
        }
      ],
      "stateMutability": "view",
      "type": "function",
      "constant": true
    },
    {
      "inputs": [],
      "name": "remainingAmount",
      "outputs": [
        {
          "internalType": "uint256",
          "name": "",
          "type": "uint256"
        }
      ],
      "stateMutability": "view",
      "type": "function",
      "constant": true
    },
    {
      "inputs": [],
      "name": "remainingCount",
      "outputs": [
        {
          "internalType": "uint256",
          "name": "",
          "type": "uint256"
        }
      ],
      "stateMutability": "view",
      "type": "function",
      "constant": true
    },
    {
      "inputs": [],
      "name": "totalAmount",
      "outputs": [
        {
          "internalType": "uint256",
          "name": "",
          "type": "uint256"
        }
      ],
      "stateMutability": "view",
      "type": "function",
      "constant": true
    },
    {
      "inputs": [],
      "name": "yideng",
      "outputs": [
        {
          "internalType": "address payable",
          "name": "",
          "type": "address"
        }
      ],
      "stateMutability": "view",
      "type": "function",
      "constant": true
    },
    {
      "inputs": [
        {
          "internalType": "uint256",
          "name": "c",
          "type": "uint256"
        },
        {
          "internalType": "bool",
          "name": "_isEqual",
          "type": "bool"
        }
      ],
      "name": "createRedPacket",
      "outputs": [],
      "stateMutability": "payable",
      "type": "function",
      "payable": true
    },
    {
      "inputs": [],
      "name": "getBalance",
      "outputs": [
        {
          "internalType": "uint256",
          "name": "",
          "type": "uint256"
        }
      ],
      "stateMutability": "view",
      "type": "function",
      "constant": true
    },
    {
      "inputs": [],
      "name": "grabRedPacket",
      "outputs": [],
      "stateMutability": "nonpayable",
      "type": "function"
    },
    {
      "inputs": [
        {
          "internalType": "address",
          "name": "user",
          "type": "address"
        }
      ],
      "name": "getGrabbedAmount",
      "outputs": [
        {
          "internalType": "uint256",
          "name": "",
          "type": "uint256"
        }
      ],
      "stateMutability": "view",
      "type": "function",
      "constant": true
    },
    {
      "inputs": [],
      "name": "getRedPacketInfo",
      "outputs": [
        {
          "internalType": "uint256",
          "name": "_totalAmount",
          "type": "uint256"
        },
        {
          "internalType": "uint256",
          "name": "_count",
          "type": "uint256"
        },
        {
          "internalType": "uint256",
          "name": "_remainingCount",
          "type": "uint256"
        },
        {
          "internalType": "uint256",
          "name": "_remainingAmount",
          "type": "uint256"
        },
        {
          "internalType": "bool",
          "name": "_isEqual",
          "type": "bool"
        },
        {
          "internalType": "bool",
          "name": "_isInitialized",
          "type": "bool"
        }
      ],
      "stateMutability": "view",
      "type": "function",
      "constant": true
    },
    {
      "inputs": [],
      "name": "withdraw",
      "outputs": [],
      "stateMutability": "nonpayable",
      "type": "function"
    }
  ],
  "bytecode": "0x608060405234801561001057600080fd5b50611629806100206000396000f3fe608060405260043610610105576000357c0100000000000000000000000000000000000000000000000000000000900480638ff6105a116100a7578063acbe845211610076578063acbe84521461030a578063bcb8f8f814610335578063c4712e2114610351578063d8753aa51461036857610105565b80638ff6105a14610235578063928326e8146102725780639faf4537146102af578063a50a1fe6146102df57610105565b80631a39d8ef116100e35780631a39d8ef1461019d578063392e53cd146101c85780633ccfd60b146101f35780635cd52e221461020a57610105565b806306661abd1461010a5780630ec0afc91461013557806312065fe014610172575b600080fd5b34801561011657600080fd5b5061011f610393565b60405161012c9190610cdd565b60405180910390f35b34801561014157600080fd5b5061015c60048036038101906101579190610d5b565b610399565b6040516101699190610da3565b60405180910390f35b34801561017e57600080fd5b506101876103b9565b6040516101949190610cdd565b60405180910390f35b3480156101a957600080fd5b506101b26103d8565b6040516101bf9190610cdd565b60405180910390f35b3480156101d457600080fd5b506101dd6103de565b6040516101ea9190610da3565b60405180910390f35b3480156101ff57600080fd5b506102086103f1565b005b34801561021657600080fd5b5061021f61058c565b60405161022c9190610ddf565b60405180910390f35b34801561024157600080fd5b5061025c60048036038101906102579190610d5b565b6105b0565b6040516102699190610cdd565b60405180910390f35b34801561027e57600080fd5b5061029960048036038101906102949190610d5b565b6105f9565b6040516102a69190610cdd565b60405180910390f35b3480156102bb57600080fd5b506102c4610611565b6040516102d696959493929190610dfa565b60405180910390f35b3480156102eb57600080fd5b506102f461065a565b6040516103019190610cdd565b60405180910390f35b34801561031657600080fd5b5061031f610660565b60405161032c9190610da3565b60405180910390f35b61034f600480360381019061034a9190610eb3565b610673565b005b34801561035d57600080fd5b50610366610830565b005b34801561037457600080fd5b5061037d610cbe565b60405161038a9190610cdd565b60405180910390f35b60025481565b60066020528060005260406000206000915054906101000a900460ff1681565b60003073ffffffffffffffffffffffffffffffffffffffff1631905090565b60015481565b600860009054906101000a900460ff1681565b600860009054906101000a900460ff16610440576040517f08c379a000000000000000000000000000000000000000000000000000000000815260040161043790610f50565b60405180910390fd5b60008054906101000a900473ffffffffffffffffffffffffffffffffffffffff1673ffffffffffffffffffffffffffffffffffffffff163373ffffffffffffffffffffffffffffffffffffffff16146104ce576040517f08c379a00000000000000000000000000000000000000000000000000000000081526004016104c590610fbc565b60405180910390fd5b600060045411610513576040517f08c379a000000000000000000000000000000000000000000000000000000000815260040161050a90611028565b60405180910390fd5b60006004549050600060048190555060008054906101000a900473ffffffffffffffffffffffffffffffffffffffff1673ffffffffffffffffffffffffffffffffffffffff166108fc829081150290604051600060405180830381858888f19350505050158015610588573d6000803e3d6000fd5b5050565b60008054906101000a900473ffffffffffffffffffffffffffffffffffffffff1681565b6000600760008373ffffffffffffffffffffffffffffffffffffffff1673ffffffffffffffffffffffffffffffffffffffff168152602001908152602001600020549050919050565b60076020528060005260406000206000915090505481565b600080600080600080600154600254600354600454600560009054906101000a900460ff16600860009054906101000a900460ff16955095509550955095509550909192939495565b60045481565b600560009054906101000a900460ff1681565b600860009054906101000a900460ff16156106c3576040517f08c379a00000000000000000000000000000000000000000000000000000000081526004016106ba90611094565b60405180910390fd5b60003411610706576040517f08c379a00000000000000000000000000000000000000000000000000000000081526004016106fd90611100565b60405180910390fd5b60008211610749576040517f08c379a00000000000000000000000000000000000000000000000000000000081526004016107409061116c565b60405180910390fd5b336000806101000a81548173ffffffffffffffffffffffffffffffffffffffff021916908373ffffffffffffffffffffffffffffffffffffffff160217905550816002819055508160038190555080600560006101000a81548160ff02191690831515021790555034600181905550346004819055506001600860006101000a81548160ff0219169083151502179055503373ffffffffffffffffffffffffffffffffffffffff167f0b3fa1200abdbe61913a255af495037bc9929ea74fa225e0513a76a0d01e2f8e3484846040516108249392919061118c565b60405180910390a25050565b600860009054906101000a900460ff1661087f576040517f08c379a000000000000000000000000000000000000000000000000000000000815260040161087690610f50565b60405180910390fd5b6000600354116108c4576040517f08c379a00000000000000000000000000000000000000000000000000000000081526004016108bb9061120f565b60405180910390fd5b600060045411610909576040517f08c379a00000000000000000000000000000000000000000000000000000000081526004016109009061127b565b60405180910390fd5b600660003373ffffffffffffffffffffffffffffffffffffffff1673ffffffffffffffffffffffffffffffffffffffff16815260200190815260200160002060009054906101000a900460ff1615610996576040517f08c379a000000000000000000000000000000000000000000000000000000000815260040161098d906112e7565b60405180910390fd5b60006001600354036109ac576004549050610a9a565b600560009054906101000a900460ff16156109e8576002546001546109d19190611365565b90506001600354036109e35760045490505b610a99565b600060016003546109f99190611396565b600454610a069190611396565b905060008111610a4b576040517f08c379a0000000000000000000000000000000000000000000000000000000008152600401610a4290611416565b60405180910390fd5b600181423360035444604051602001610a6794939291906114ab565b6040516020818303038152906040528051906020012060019004610a8b91906114f9565b610a95919061152a565b9150505b5b600454811115610adf576040517f08c379a0000000000000000000000000000000000000000000000000000000008152600401610ad6906115aa565b60405180910390fd5b60008111610b22576040517f08c379a0000000000000000000000000000000000000000000000000000000008152600401610b1990611100565b60405180910390fd5b6001600660003373ffffffffffffffffffffffffffffffffffffffff1673ffffffffffffffffffffffffffffffffffffffff16815260200190815260200160002060006101000a81548160ff02191690831515021790555080600760003373ffffffffffffffffffffffffffffffffffffffff1673ffffffffffffffffffffffffffffffffffffffff1681526020019081526020016000208190555060036000815480929190610bd1906115ca565b91905055508060046000828254610be89190611396565b925050819055503373ffffffffffffffffffffffffffffffffffffffff166108fc829081150290604051600060405180830381858888f19350505050158015610c35573d6000803e3d6000fd5b503373ffffffffffffffffffffffffffffffffffffffff167f5443873cb1a04fea5858c73589f808b9bd34b9fdfe6d29edf18de0e6a8093d5f82604051610c7c9190610cdd565b60405180910390a2600060035403610cbb577f1632cecaad26e53451f770ab7e046896b2c0a1e0413e122dbc3eef6dbb8449b260405160405180910390a15b50565b60035481565b6000819050919050565b610cd781610cc4565b82525050565b6000602082019050610cf26000830184610cce565b92915050565b600080fd5b600073ffffffffffffffffffffffffffffffffffffffff82169050919050565b6000610d2882610cfd565b9050919050565b610d3881610d1d565b8114610d4357600080fd5b50565b600081359050610d5581610d2f565b92915050565b600060208284031215610d7157610d70610cf8565b5b6000610d7f84828501610d46565b91505092915050565b60008115159050919050565b610d9d81610d88565b82525050565b6000602082019050610db86000830184610d94565b92915050565b6000610dc982610cfd565b9050919050565b610dd981610dbe565b82525050565b6000602082019050610df46000830184610dd0565b92915050565b600060c082019050610e0f6000830189610cce565b610e1c6020830188610cce565b610e296040830187610cce565b610e366060830186610cce565b610e436080830185610d94565b610e5060a0830184610d94565b979650505050505050565b610e6481610cc4565b8114610e6f57600080fd5b50565b600081359050610e8181610e5b565b92915050565b610e9081610d88565b8114610e9b57600080fd5b50565b600081359050610ead81610e87565b92915050565b60008060408385031215610eca57610ec9610cf8565b5b6000610ed885828601610e72565b9250506020610ee985828601610e9e565b9150509250929050565b600082825260208201905092915050565b7f726564207061636b6574206e6f7420696e697469616c697a6564000000000000600082015250565b6000610f3a601a83610ef3565b9150610f4582610f04565b602082019050919050565b60006020820190508181036000830152610f6981610f2d565b9050919050565b7f6f6e6c792063726561746f722063616e20776974686472617700000000000000600082015250565b6000610fa6601983610ef3565b9150610fb182610f70565b602082019050919050565b60006020820190508181036000830152610fd581610f99565b9050919050565b7f6e6f2072656d61696e696e6720616d6f756e7400000000000000000000000000600082015250565b6000611012601383610ef3565b915061101d82610fdc565b602082019050919050565b6000602082019050818103600083015261104181611005565b9050919050565b7f726564207061636b657420616c726561647920696e697469616c697a65640000600082015250565b600061107e601e83610ef3565b915061108982611048565b602082019050919050565b600060208201905081810360008301526110ad81611071565b9050919050565b7f616d6f756e74206d757374203e20300000000000000000000000000000000000600082015250565b60006110ea600f83610ef3565b91506110f5826110b4565b602082019050919050565b60006020820190508181036000830152611119816110dd565b9050919050565b7f636f756e74206d757374203e2030000000000000000000000000000000000000600082015250565b6000611156600e83610ef3565b915061116182611120565b602082019050919050565b6000602082019050818103600083015261118581611149565b9050919050565b60006060820190506111a16000830186610cce565b6111ae6020830185610cce565b6111bb6040830184610d94565b949350505050565b7f6e6f20726564207061636b657473206c65667400000000000000000000000000600082015250565b60006111f9601383610ef3565b9150611204826111c3565b602082019050919050565b60006020820190508181036000830152611228816111ec565b9050919050565b7f6e6f20616d6f756e74206c656674000000000000000000000000000000000000600082015250565b6000611265600e83610ef3565b91506112708261122f565b602082019050919050565b6000602082019050818103600083015261129481611258565b9050919050565b7f796f75206861766520616c726561647920677261626265642100000000000000600082015250565b60006112d1601983610ef3565b91506112dc8261129b565b602082019050919050565b60006020820190508181036000830152611300816112c4565b9050919050565b7f4e487b7100000000000000000000000000000000000000000000000000000000600052601260045260246000fd5b7f4e487b7100000000000000000000000000000000000000000000000000000000600052601160045260246000fd5b600061137082610cc4565b915061137b83610cc4565b92508261138b5761138a611307565b5b828204905092915050565b60006113a182610cc4565b91506113ac83610cc4565b92508282039050818111156113c4576113c3611336565b5b92915050565b7f696e73756666696369656e742072656d61696e696e6720616d6f756e74000000600082015250565b6000611400601d83610ef3565b915061140b826113ca565b602082019050919050565b6000602082019050818103600083015261142f816113f3565b9050919050565b6000819050919050565b61145161144c82610cc4565b611436565b82525050565b60006c0100000000000000000000000082029050919050565b600061147b82611457565b9050919050565b600061148d82611470565b9050919050565b6114a56114a082610d1d565b611482565b82525050565b60006114b78287611440565b6020820191506114c78286611494565b6014820191506114d78285611440565b6020820191506114e78284611440565b60208201915081905095945050505050565b600061150482610cc4565b915061150f83610cc4565b92508261151f5761151e611307565b5b828206905092915050565b600061153582610cc4565b915061154083610cc4565b925082820190508082111561155857611557611336565b5b92915050565b7f616d6f756e7420657863656564732072656d61696e696e670000000000000000600082015250565b6000611594601883610ef3565b915061159f8261155e565b602082019050919050565b600060208201905081810360008301526115c381611587565b9050919050565b60006115d582610cc4565b9150600082036115e8576115e7611336565b5b60018203905091905056fea2646970667358221220b810311f22f4288794abcfe0042bc4bad96e1356b48b690d0c3cf77ab240344664736f6c63430008150033",
  "immutableReferences": {},
  "source": "// SPDX-License-Identifier: GPL-3.0\r\n\r\npragma solidity >=0.8.2 <0.9.0;\r\n\r\ncontract Redpacket{\r\n    //\r\n    address payable public yideng;\r\n    // \r\n    uint256 public totalAmount;\r\n    // \r\n    uint256 public count;\r\n    // \r\n    uint256 public remainingCount;\r\n    // \r\n    uint256 public remainingAmount;\r\n    //\r\n    bool public isEqual;\r\n    // \r\n    mapping(address => bool) public isGrabbed;\r\n    // \r\n    mapping(address => uint256) public grabbedAmount;\r\n    // \r\n    bool public isInitialized;\r\n\r\n    event RedPacketCreated(address indexed creator, uint256 totalAmount, uint256 count, bool isEqual);\r\n    event RedPacketGrabbed(address indexed grabber, uint256 amount);\r\n    event RedPacketFinished();\r\n\r\n    // \r\n    constructor() {\r\n        // \r\n    }\r\n    \r\n    // \r\n    function createRedPacket(uint256 c, bool _isEqual) external payable {\r\n        // \r\n        require(!isInitialized, \"red packet already initialized\");\r\n        // \r\n        require(msg.value > 0, \"amount must > 0\");\r\n        require(c > 0, \"count must > 0\");\r\n        \r\n        // \r\n        yideng = payable(msg.sender);\r\n        count = c;\r\n        remainingCount = c;\r\n        isEqual = _isEqual;\r\n        totalAmount = msg.value;\r\n        remainingAmount = msg.value;\r\n        isInitialized = true;\r\n        \r\n        emit RedPacketCreated(msg.sender, msg.value, c, _isEqual);\r\n    }\r\n    \r\n    // \r\n    function getBalance() public view returns(uint256){\r\n        return address(this).balance;\r\n    }\r\n    \r\n    // \r\n    function grabRedPacket() public {\r\n        require(isInitialized, \"red packet not initialized\");\r\n        require(remainingCount > 0, \"no red packets left\");\r\n        require(remainingAmount > 0, \"no amount left\");\r\n        require(!isGrabbed[msg.sender], \"you have already grabbed!\");\r\n\r\n        uint256 amount;\r\n        \r\n        if(remainingCount == 1){\r\n            // \r\n            amount = remainingAmount;\r\n        } else {\r\n            if(isEqual){\r\n                // \r\n                amount = totalAmount / count;\r\n                // \r\n                if(remainingCount == 1) {\r\n                    amount = remainingAmount;\r\n                }\r\n            } else {\r\n                //  - \r\n                // 1 wei\r\n                uint256 maxAmount = remainingAmount - (remainingCount - 1);\r\n                require(maxAmount > 0, \"insufficient remaining amount\");\r\n                \r\n                // 1maxAmount\r\n                amount = (uint256(keccak256(abi.encodePacked(\r\n                    block.timestamp, \r\n                    msg.sender, \r\n                    remainingCount,\r\n                    block.difficulty\r\n                ))) % maxAmount) + 1;\r\n            }\r\n        }\r\n        \r\n        require(amount <= remainingAmount, \"amount exceeds remaining\");\r\n        require(amount > 0, \"amount must > 0\");\r\n        \r\n        // \r\n        isGrabbed[msg.sender] = true;\r\n        grabbedAmount[msg.sender] = amount;\r\n        remainingCount--;\r\n        remainingAmount -= amount;\r\n        \r\n        // \r\n        payable(msg.sender).transfer(amount);\r\n        \r\n        emit RedPacketGrabbed(msg.sender, amount);\r\n        \r\n        if(remainingCount == 0) {\r\n            emit RedPacketFinished();\r\n        }\r\n    }\r\n    \r\n    // \r\n    function getGrabbedAmount(address user) public view returns(uint256) {\r\n        return grabbedAmount[user];\r\n    }\r\n    \r\n    // \r\n    function getRedPacketInfo() public view returns(\r\n        uint256 _totalAmount,\r\n        uint256 _count, \r\n        uint256 _remainingCount,\r\n        uint256 _remainingAmount,\r\n        bool _isEqual,\r\n        bool _isInitialized\r\n    ) {\r\n        return (totalAmount, count, remainingCount, remainingAmount, isEqual, isInitialized);\r\n    }\r\n    \r\n    // \r\n    function withdraw() public {\r\n        require(isInitialized, \"red packet not initialized\");\r\n        require(msg.sender == yideng, \"only creator can withdraw\");\r\n        require(remainingAmount > 0, \"no remaining amount\");\r\n        \r\n        uint256 amount = remainingAmount;\r\n        remainingAmount = 0;\r\n        yideng.transfer(amount);\r\n    }\r\n}",
  "sourcePath": "D:\\workspace_study2\\redPacketFront\\my-truffle-project\\contracts\\redpacket.sol",
  "compiler": {
    "name": "solc",
    "version": "0.8.21+commit.d9974bed.Emscripten.clang"
  },
  "schemaVersion": "3.4.16",
  "updatedAt": "2025-05-31T02:27:57.598Z",
  "networkType": "ethereum",
  "devdoc": {
    "kind": "dev",
    "methods": {},
    "version": 1
  },
  "userdoc": {
    "kind": "user",
    "methods": {},
    "version": 1
  }
}